:100000000C942A000C9434000C9434000C943400AA
:100010000C9434000C9434000C9434000C94340090
:100020000C9434000C9434000C9434000C94340080
:100030000C9434000C9434000C9434000C94340070
:100040000C9434000C9434000C9434000C94340060
:100050000C94340011241FBECFE5D4E0DEBFCDBF29
:100060000E9436000C945F030C940000CF93DF9342
:10007000CDB7DEB7CF5AD1090FB6F894DEBF0FBEA9
:10008000CDBF8AE390E02EEFFC01208384E390E073
:100090002FEFFC01208387E390E02FEFFC0120830A
:1000A0001A8219821D821C8281E08B8387E290E094
:1000B00020E4FC01208386E290E027E8FC01208315
:1000C0008BE390E0FC0110829DC180E090E0A6E906
:1000D000B3E48E839F83A887B98720E030E04AE7A6
:1000E00055E46E817F81888599850E94D402DC0168
:1000F000CB018A879B87AC87BD8720E030E040E852
:100100005FE36A857B858C859D850E9453028823E9
:100110002CF481E090E09F878E873FC020E03FEF86
:100120004FE757E46A857B858C859D850E94D002C8
:1001300018164CF520E030E040E251E46E817F81FA
:10014000888599850E94D402DC01CB01BC01CD01D8
:100150000E945702DC01CB019F878E870FC080E988
:1001600091E0998B888B888999890197F1F7998B10
:10017000888B8E859F8501979F878E878E859F852B
:10018000009769F714C06A857B858C859D850E94E0
:100190005702DC01CB019F878E878E859F859B8BC5
:1001A0008A8B8A899B890197F1F79B8B8A8B86E2E0
:1001B00090E020E4FC012083000086E290E0FC0156
:1001C0008081882F90E0807499270097B1F784E2AE
:1001D00090E0FC01808191818132F3E09F0780F003
:1001E00089819A81880F991F9E012F5F3F4F820F4F
:1001F000931F8F9621E030E0FC01318320830DC0F6
:1002000089819A81880F991F9E012F5F3F4F820F2E
:10021000931F8F96FC011182108289819A81019629
:100220009A83898380E090E8A9EFB3E48C8B9D8B5F
:10023000AE8BBF8B20E030E04AE755E46C897D89C6
:100240008E899F890E94D402DC01CB01888F998F0F
:10025000AA8FBB8F20E030E040E85FE3688D798DA6
:100260008A8D9B8D0E94530288232CF481E090E0BC
:100270009D8F8C8F3FC020E03FEF4FE757E4688DA4
:10028000798D8A8D9B8D0E94D00218164CF520E046
:1002900030E040E251E46C897D898E899F890E941B
:1002A000D402DC01CB01BC01CD010E945702DC016C
:1002B000CB019D8F8C8F0FC080E991E09F8F8E8F37
:1002C0008E8D9F8D0197F1F79F8F8E8F8C8D9D8DD9
:1002D00001979D8F8C8F8C8D9D8D009769F714C031
:1002E000688D798D8A8D9B8D0E945702DC01CB0130
:1002F0009D8F8C8F8C8D9D8D99A388A388A199A1AA
:100300000197F1F799A388A385E390E0FC0110829F
:100310008B81880F8B838B81803110F081E08B8300
:1003200080E090E0A8E4B3E48AA39BA3ACA3BDA3C0
:1003300020E030E04AE755E46AA17BA18CA19DA1B1
:100340000E94D402DC01CB018EA39FA3A8A7B9A76A
:1003500020E030E040E85FE36EA17FA188A599A589
:100360000E94530288232CF481E090E09BA78AA787
:100370003FC020E03FEF4FE757E46EA17FA188A583
:1003800099A50E94D00218164CF520E030E040E21A
:1003900051E46AA17BA18CA19DA10E94D402DC0141
:1003A000CB01BC01CD010E945702DC01CB019BA710
:1003B0008AA70FC080E991E09DA78CA78CA59DA579
:1003C0000197F1F79DA78CA78AA59BA501979BA7ED
:1003D0008AA78AA59BA5009769F714C06EA17FA183
:1003E00088A599A50E945702DC01CB019BA78AA78B
:1003F0008AA59BA59FA78EA78EA59FA50197F1F71C
:100400009FA78EA789819A818032910508F45DCEDD
:1004100081E090E09A83898328A939A9CE01805987
:100420009F4F805C9F4FFC013183208320E230E0AE
:1004300089819A81A901481B590BCA0129813A81F6
:1004400021503109220F331FAE014F5F5F4F240F40
:10045000351F215D3F4FF9014081518129813A814A
:10046000220F331FBE016F5F7F4F260F371F215DA5
:100470003F4FF9012081318124273527AE014059B2
:100480005F4F880F991F840F951FFC0131832083D4
:1004900089819A8101969A83898389819A810196BB
:1004A0009A838983B9CF2FD008F481E0089557D07B
:1004B00088F09F5790F0B92F9927B751A0F0D1F04D
:1004C000660F771F881F991F1AF0BA95C9F712C0D7
:1004D000B13081F05ED0B1E008955BC0672F782F16
:1004E0008827B85F39F0B93FCCF386957795679543
:1004F000B395D9F73EF490958095709561957F4FAF
:100500008F4F9F4F0895990F0008550FAA0BE0E8F1
:10051000FEEF16161706E807F907C0F012161306C5
:10052000E407F50798F0621B730B840B950B39F405
:100530000A2661F0232B242B252B21F408950A266B
:1005400009F4A140A6958FEF811D811D089557FDE7
:100550009058440F551F59F05F3F71F04795880F31
:1005600097FB991F61F09F3F79F0879508951216C8
:1005700013061406551FF2CF4695F1DF08C0161674
:1005800017061806991FF1CF869571056105089425
:100590000895E894BB2766277727CB0197F908953C
:1005A000B2DF08F48FEF08950BD078C069D028F03F
:1005B0006ED018F0952309F05AC05FC01124EACF1D
:1005C000C6DFA0F3959FD1F3950F50E0551F629FB2
:1005D000F001729FBB27F00DB11D639FAA27F00D9C
:1005E000B11DAA1F649F6627B00DA11D661F829FC3
:1005F0002227B00DA11D621F739FB00DA11D621FA8
:10060000839FA00D611D221F749F3327A00D611DC4
:10061000231F849F600D211D822F762F6A2F1124A6
:100620009F5750408AF0E1F088234AF0EE0FFF1FF9
:10063000BB1F661F771F881F91505040A9F79E3F30
:10064000510570F014C0A6CF5F3FECF3983EDCF389
:10065000869577956795B795F795E7959F5FC1F76D
:10066000FE2B880F911D9695879597F9089597F918
:100670009F6780E870E060E008959FEF80EC089548
:1006800000240A9416161706180609060895002471
:100690000A9412161306140605060895092E0394EB
:1006A000000C11F4882352F0BB0F40F4BF2B11F45F
:1006B00060FF04C06F5F7F4F8F4F9F4F0895F89486
:0206C000FFCF6A
:00000001FF
